:020000040800F2
:10000000800500209D010008810C0008850700087C
:10001000190C000895030008EF20000800000000FC
:100020000000000000000000000000002112000895
:100030007D06000800000000D510000831140008FB
:10004000B7010008B7010008B7010008B7010008B0
:10005000B7010008B7010008B7010008B7010008A0
:100060007F060008B7010008B7010008B7010008C3
:10007000B7010008B7010008B7010008B701000880
:10008000B7010008B7010008B7010008B701000870
:10009000B7010008B7010008B7010008B701000860
:1000A000B7010008B7010008B7010008B701000850
:1000B0009D14000829150008B7010008B7010008C1
:1000C000B7010008B7010008B7010008B701000830
:1000D000B7010008251D0008B7010008B701000896
:1000E000B7010008B7010008B7010008B701000810
:1000F000B7010008B7010008B7010008B701000800
:10010000B7010008B7010008B7010008B7010008EF
:10011000B7010008B7010008B7010008B7010008DF
:10012000B7010008B7010008B7010008B7010008CF
:10013000B7010008B7010008B7010008B7010008BF
:10014000B7010008B7010008B7010008B7010008AF
:10015000B7010008B7010008B7010008B70100089F
:10016000B7010008B7010008B7010008B70100088F
:10017000B7010008B7010008B7010008B70100087F
:10018000B7010008B7010008DFF80CD000F018F83C
:100190000048004759240008800500200648804791
:1001A00006480047FEE7FEE7FEE7FEE7FEE7FEE75C
:1001B000FEE7FEE7FEE7FEE73514000889010008C8
:1001C000064C074D06E0E06840F0010394E80700A4
:1001D00098471034AC42F6D3FFF7DAFFE428000862
:1001E0000429000810B519A20521012000F09CFE89
:1001F0001A48022319460269052000F047FE18A29A
:100200000521084600F090FE1448022306214269A9
:10021000052000F03BFE12A20921052000F084FE1B
:100220000E4802230A218269052000F02FFE0D48A6
:1002300080680D49096891FBF0F200FB121401235C
:1002400022460F21072000F021FE10BD416C617293
:100250006D20636C6F636B2121000000580100204A
:100260003A000000B4000020C00000201CB50121AD
:10027000022000F031FF012000908DF804000020E2
:100280008DF8060003208DF805006946034800F04C
:1002900001FA0121014800F071FA1CBD000402407E
:1002A00010B51648006808B9012000E00020134985
:1002B0000860642002F040F81148D0F8800208B9C4
:1002C000012000E000200D490860642002F034F8AD
:1002D0000B48D0F8800208B9012000E0002007494F
:1002E0000860642002F028F80548D0F8800208B9B8
:1002F000012000E000200149086010BD80824042DA
:100300000080404210B50A48006808B9012000E0AA
:10031000002007490860642002F00EF80548D0F874
:10032000800208B9012000E000200149086010BDEA
:10033000808240420080404210B5FFF797FFA8211D
:1003400042F2107001F0EAF9A82142F2107001F0B7
:1003500045FA4FF4E13002F009F9A82001F0CEFF90
:1003600000F01CFD00F020FC4FF4A06000F0C6FC83
:1003700042F2D00142F2107001F09EF9542142F293
:10038000107001F0A1F800F063FB02F089F800F0B2
:10039000E1F810BD00BFFEE710B52EA20321012039
:1003A00000F0C2FD2FA20121032000F0BDFD2F4867
:1003B000042302210268184600F068FD2CA20821DF
:1003C000042000F0B1FD29480223092142680420DD
:1003D00000F05CFD26A20D21042000F0A5FD2348BD
:1003E00002230E218268042000F050FD21A2012189
:1003F000052000F099FD1D480223194602690620D8
:1004000000F044FD18A20521062000F08DFD1748DC
:10041000022306214269084600F038FD12A2092194
:10042000062000F081FD114802230A21826906207E
:1004300000F02CFD114880681149096891FBF0F229
:1004400000FB1214012322460F21072000F01EFD9D
:1004500010BD0000437573746F6D5F636C6F636BE9
:1004600021000000446174653A000000240000206F
:100470002D00000054696D653A000000B4000020B2
:10048000C000002010B5002400F028F804E0601C33
:10049000C4B2012001F06CFF40210F4800F065F963
:1004A000012801D1642CF2DB642C01DB012010BD9A
:1004B000002404E0601CC4B2012001F059FF402177
:1004C000054800F052F908B9642CF3DB642C01DB19
:1004D0000120ECE70020EAE7000C02401CB50121F6
:1004E000082000F0F9FD4020009000208DF8040065
:1004F0008DF8060003208DF8050001208DF8070017
:100500006946044800F0C6F84021024800F038F976
:100510001CBD0000000C02401CB50121082000F0A9
:10052000DBFD4020009001208DF8040000208DF8B4
:10053000060003208DF8050001208DF807006946AC
:10054000034800F0A7F84021014800F019F91CBD4C
:10055000000C024010B500F06BF8FFF793FF10BDE0
:1005600010B5002404E0601CC4B2012001F000FFBB
:100570004021104800F0F9F8012801D1642CF2DB89
:10058000002404E0601CC4B2012001F0F1FE40210F
:10059000084800F0EAF808B9642CF3DB322001F0D7
:1005A000E7FE4021034800F0E0F8012800D110BD2B
:1005B0000020FCE7000C024070B50024002506E096
:1005C0006006040EFFF7CCFF0443681CC5B2082D7B
:1005D000F6DB204670BD7CB505460E4600F028F8D7
:1005E000FFF750FFF8B9002405E0FFF7E5FF0DF82D
:1005F0000400601CC4B2052CF7DB9DF800009DF8D8
:10060000011008449DF8021008449DF803100844A6
:100610009DF80410884208D19DF8020028709DF8CA
:100620000000307001E001207CBD0020FCE70000EC
:1006300010B5FFF771FF4021064800F09FF8142025
:1006400001F07AFE4021034800F09AF81E2001F0E4
:100650008FFE10BD000C0240074A1279052A02D114
:1006600002680A440260044A1279062A02D102682A
:10067000521A0260704700001C000020704710B53D
:10068000042000F001F810BD014908607047000027
:10069000143C0140F0B50A4600210023002400BFAD
:1006A0003DE0012505FA01F3156805EA03049C42C3
:1006B00034D105684F000326BE40B5430560157967
:1006C0004E00B5400668354305601579012D02D00E
:1006D0001579022D16D185684F000326BE40B5431B
:1006E000856055794E00B54086683543856045681C
:1006F00001268E40B5434560456896798E40B6B276
:1007000035434560C5684F000326BE40B543C5600C
:10071000D5794E00B540C6683543C560491C1029DF
:10072000BFD3F0BDF0B5002300244D07ED0E02FA53
:1007300005F3CE1000F1200555F826504E07F70EB0
:100740000F26BE40B543CF1000F1200646F82750D3
:10075000CE1000F1200555F8265045EA0304CE10CE
:1007600000F1200545F82640F0BD0246002013693F
:100770000B400BB1012000E000207047418370471F
:100780000183704700BFFEE710B5A82001F0D4FD3B
:1007900000F08AF9A249087104280FD1A148007815
:1007A000401CA049087008460078496890FBF1F2A7
:1007B00001FB12009B49087000F0AAFA98480079E2
:1007C000032804D198480068401C97490860954860
:1007D000007830B1012873D0022872D0032871D17B
:1007E000FEE006208F498860FFF7D6FD8D488068BF
:1007F0008D49096891FBF0F200FB1210062808D21F
:10080000DFE800F003081A50657701218748FFF7F9
:1008100023FF80E0854840680C2809DC8348406855
:10082000002805DD01218148001DFFF715FF02E0CA
:1008300001207E4948606EE07C490868C11700EBE2
:1008400091718910A0EB810181B97849096864220E
:1008500091FBF2F302FB131141B174484068401E52
:10086000734951F820007349086007E06F484068F9
:10087000401E714951F820006E4908606B4880683D
:100880006C490968884209DC68488068002805DDF1
:10089000012166480830FFF7DFFE02E001206349CE
:1008A000886038E06148006918280CDA5F48006900
:1008B000002808DB01215D481030FFF7CDFE05E080
:1008C0002BE042E0A9E000205849086123E05748A6
:1008D00040693C2809DA55484069002805DB0121B8
:1008E00052481430FFF7B8FE02E000204F4948613B
:1008F00011E04E4880693C2809DA4C48806900289C
:1009000005DD012149481830FFF7A6FE02E000206E
:100910004649886100BF00BF7FE001F0D9FD404833
:100920000079012804D145480068401C434908600B
:1009300042480068082807DD0020414908614861F5
:100940008861C8613D49086067E0032035498860D7
:10095000FFF748FC334880683349096891FBF0F29F
:1009600000FB121020B1012814D0022836D123E058
:1009700034480069182809DA32480069002805DB84
:10098000012130481030FFF767FE02E000202D49BA
:10099000086123E02B4840693C2809DA294840696E
:1009A000002805DB012127481430FFF755FE02E03F
:1009B00000202449486111E0224880693C2809DA76
:1009C00020488069002805DB01211E481830FFF708
:1009D00043FE02E000201B49886100BF00BF1CE00D
:1009E00002201049886001F025F90E4880680E4900
:1009F000096891FBF0F200FB121010B101280AD136
:100A000004E001211048FFF727FE04E002210F480F
:100A1000FFF722FE00BF00BF00BF00BF10BD0000F7
:100A20001C000020B4000020C00000202400002092
:100A30007C000020480000204C000020AC0000207A
:100A40003401002058010020C8000020CC00002004
:100A50001CB50121102000F03FFB00208DF80400A0
:100A600001208DF8070002208DF805007C20009001
:100A700069460B48FFF70EFE0121480300F02CFBEE
:100A800000208DF8040001208DF8070002208DF869
:100A900005000003009069460248FFF7FBFD1CBDFE
:100AA000001002400008024010B504211548FFF76D
:100AB0005CFE08B9032010BD08211248FFF755FE5F
:100AC00008B90420F7E710210E48FFF74EFE08B9D9
:100AD0000520F0E720210B48FFF747FE08B9012069
:100AE000E9E740210748FFF740FE08B90620E2E7A2
:100AF0004FF400510448FFF738FE08B90220DAE746
:100B00000020D8E7001002400008024070B50446FB
:100B1000002500BF42E04FF480712248FFF72EFE0F
:100B20004FF400711F48FFF729FE4FF480611D4804
:100B3000FFF724FE4FF400611A48FFF71FFE642000
:100B400001F0FAFB4FF480711648FFF719FE4FF4DD
:100B500000711448FFF714FE4FF480611148FFF74D
:100B60000FFE4FF400610F48FFF70AFE642001F00A
:100B7000E3FB4FF480710B48FFF700FE4FF4007168
:100B80000848FFF7FBFD4FF480610648FFF7F6FDCC
:100B90004FF400610348FFF7F1FD6D1CA542BADB7D
:100BA00070BD0000001002401CB50121112000F0B2
:100BB00093FA0220009001208DF8040000208DF8A7
:100BC000060003208DF8050069461148FFF762FD15
:100BD0004FF47060009069460E48FFF75BFD0221FC
:100BE0000B48FFF7CDFD4FF480710A48FFF7C6FDB3
:100BF0004FF400710748FFF7C1FD4FF480610548CD
:100C0000FFF7BCFD4FF400610248FFF7B7FD1CBDC4
:100C1000000002400010024000BFFEE716490868CD
:100C200000EBD0714910A0EB4101012904D1134818
:100C3000C069401C1149C8611048C06963281ADDA9
:100C40000E488069401C0D4988610020C861084633
:100C500080693B280FDD08464069401C4861002040
:100C60008861084640693B2805DD08460069401C4C
:100C70000861002048617047AC000020340100206A
:100C80007047000070B5002100230F22C4781CB308
:100C9000174C246804F4E064C4F5E064C4F307214D
:100CA000C1F10404E3B20A4144789C40E1B2847883
:100CB000144021430C07210E0E4C05786155047831
:100CC00004F01F050124AC4005786D11AD0005F15D
:100CD000E025C5F8004109E0047804F01F0501246F
:100CE000AC40054D0678761145F8264070BD0000F1
:100CF0000CED00E000E400E080E100E00249014387
:100D0000024A1160704700000000FA050CED00E097
:100D100070B5002415E004F1B001C8B200F07AF912
:100D2000002000F077F9102000F074F9002504E0AD
:100D3000002000F09FF9681CC5B2802DF8DB601C14
:100D4000C4B2082CE7DB70BD06E041F6132100BFFA
:100D50000A1EA1F10101FBD1021EA0F10100F4D194
:100D6000704770B50646002415E004F1B001C8B222
:100D700000F050F9002000F04DF9102000F04AF981
:100D8000002504E0304600F075F9681CC5B2802DDE
:100D9000F8DB601CC4B2082CE7DB70BD10B500F0B6
:100DA000F9F84FF400412448FFF7EAFC4FF40051F2
:100DB0002148FFF7E3FC3220FFF7C6FF4FF4005154
:100DC0001D48FFF7DDFC002000F0E7FA802000F06E
:100DD000D2FA3F2000F0F6FA002000F0D5FA002009
:100DE00000F031FA042000F0ABFA022000F019FA0A
:100DF000012000F0F9FA082000F0B6FA102000F007
:100E0000A9FACF2000F016FAF12000F0E4FA402011
:100E100000F0F1FA002000F0C7FA002000F0CBFA51
:100E2000012000F0BAFA0020FFF79BFF00210846DE
:100E300000F0DEF810BD0000001002402DE9F04186
:100E400005460E4617464FF000080024A7F1200083
:100E500000F0FF087A2E02DD0026681CC5B231467C
:100E6000284600F0C5F8002409E008EB4801064ACE
:100E700002EB4101085D00F0FDF8601CC4B2062CD5
:100E8000F3DBBDE8F0810000182600082DE9F05FD3
:100E900083460E461546994606EB46004006060E6A
:100EA000002D06DA6D422D2231465846FFF7C6FF67
:100EB00004E0202231465846FFF7C0FFB01DC6B2FD
:100EC000284601F0A1FA00F0FF08A8F101010A206C
:100ED00001F0DCFA0746444608E020223146584635
:100EE000FFF7ACFFB01DC6B2601CC4B24C45F4DBCA
:100EF000002414E095FBF7F0303000F0FF0A95FB7A
:100F0000F7F007FB10550A2097FBF0F752463146E1
:100F10005846FFF793FFB01DC6B2601CC4B24445EB
:100F2000E8DBBDE8F09F00002DE9F04780460C4665
:100F300015464FF000090026002704EB4400400648
:100F4000040E20E0E85D203800F0FF097E2C04DD6F
:100F5000002408F1010000F0FF082146404600F09F
:100F600047F8002609E009EB4901094A02EB410173
:100F7000885D00F07FF8701CC6B2062EF3DBA01D62
:100F8000C4B2781CC7B2E85D0028DBD1BDE8F087A9
:100F9000182600081CB50121102000F09DF84FF420
:100FA0000040009001208DF8040000208DF806001C
:100FB00002208DF8050069460C48FFF76BFB4FF4E3
:100FC0008040009069460948FFF764FB4FF40050E9
:100FD000009069460548FFF75DFB4FF48050009094
:100FE00069460248FFF756FB1CBD00000010024096
:100FF00070B505460C4605F1B001C8B200F00AF81C
:10100000102141EA141000F005F804F00F0000F080
:1010100001F870BD70B504464FF480511448FFF7D5
:10102000ADFB00251BE04FF400411148FFF7A6FB84
:1010300004F0800028B14FF480410D48FFF7A0FB79
:1010400004E04FF480410A48FFF798FB4FF4004159
:101050000748FFF795FB6006040E681CC5B2082D13
:10106000E1DB4FF480510248FFF78AFB70BD0000BE
:101070000010024070B504464FF480511448FFF749
:101080007FFB00251BE04FF400411148FFF776FB82
:1010900004F0800028B14FF480410D48FFF770FB49
:1010A00004E04FF480410A48FFF768FB4FF4004129
:1010B0000748FFF765FB6006040E681CC5B2082DE3
:1010C000E1DB4FF480510248FFF75AFB70BD00008E
:1010D000001002407047000029B1064A126802431E
:1010E000044B1A6004E0034A12688243014B1A6001
:1010F000704700003038024029B1064A12680243A6
:10110000044B1A6004E0034A12688243014B1A60E0
:10111000704700004038024029B1064A1268024375
:10112000044B1A6004E0034A12688243014B1A60C0
:101130007047000044380240F0B50021002200242E
:10114000022500260223324F3F6807F00C0121B12F
:10115000042905D0082937D105E02E4F076036E075
:101160002D4F076033E02A4F3F1F3F68C7F380567B
:10117000274F3F1F3F6807F03F036EB1264FB7FB75
:10118000F3F7DFF88CC0ACF1040CDCF800C0CCF352
:10119000881C07FB0CF40CE01E4FB7FBF3F7DFF8DD
:1011A00070C0ACF1040CDCF800C0CCF3881C07FB69
:1011B0000CF4174F3F1F3F68C7F301477F1C7D00AA
:1011C000B4FBF5F7076002E0124F076000BF00BFF5
:1011D0000F4F3F6807F0F0010909104F7A5C07686C
:1011E000D74047600A4F3F6807F4E051890A0B4F28
:1011F0007A5C4768D7408760054F3F6807F46041D5
:10120000490B064F7A5C4768D740C760F0BD0000C5
:10121000083802400024F40000127A000C0000207C
:10122000704710B504462020FFF7F4FE2046FFF774
:10123000F1FE10BD10B504468120FFF7EBFE2046FD
:10124000FFF7E8FE10BD10B5044644F04000FFF77C
:10125000E1FE10BD0CB500200190009034480068FC
:1012600040F480303249086000BF3148006800F423
:10127000003000900198401C0190009818B9019826
:10128000B0F5A04FF1D12A48006800F4003010B149
:101290000120009001E0002000900098012846D134
:1012A00023484030006840F08050214940310860B8
:1012B0002048006840F440401E4908601C4808303F
:1012C00000681B49083108600846006840F4004087
:1012D00008600846006840F4A05008601648091FDE
:1012E0000860081F006840F08070091F086000BF98
:1012F0000F48006800F000700028F9D040F2057037
:101300000E4908600A480830006820F003000849C8
:10131000083108600846006840F00200086000BF1D
:1013200003480830006800F00C000828F8D10CBD14
:10133000003802400070004008544007003C024062
:1013400010B504468D20FFF765FE44F01000FFF74E
:1013500061FE10BD10B50446DA20FFF75BFE44F0D5
:101360000200FFF757FE10BD10B5044644F0C00060
:10137000FFF750FE10BD10B50446D520FFF74AFE1A
:101380002046FFF747FE10BD10B50446D320FFF7F7
:1013900041FE2046FFF73EFE10BD10B5044644F066
:1013A000AE00FFF737FE10BD10B5044644F0A400B0
:1013B000FFF730FE10BD10B5044644F0A600FFF75D
:1013C00029FE10BD10B50446A820FFF723FE2046D5
:1013D000FFF720FE10BD10B50446D920FFF71AFE16
:1013E0002046FFF717FE10BD10B5044644F0A000DC
:1013F000FFF710FE10BD10B50446DB20FFF70AFE14
:101400002046FFF707FE10BD042808D14FF0E02169
:10141000096941F004014FF0E022116107E04FF04B
:10142000E021096921F004014FF0E02211617047C9
:101430007047000010B51548006840F4700013496B
:1014400008601348006840F001001149086000205E
:101450000F49083108600E4800680E4908400C49E1
:1014600008600D48091D0860081F006820F48020EE
:10147000091F0860002006490C310860FFF7EAFEEA
:101480004FF0006001498039086010BD88ED00E030
:1014900000380240FFFFF6FE1030002410B5012195
:1014A000880700F016FA40B1064800690C2802DDF2
:1014B000002004490861FFF7B1FB0121880700F013
:1014C000F9F910BD340100207FB505460C46012115
:1014D0000846FFF711FE681E0290601E80B2ADF84C
:1014E00004000020ADF80600ADF80C0001A94FF093
:1014F000804000F05DFB0121880700F0DEF9012249
:101500001146900700F0F6F91C208DF8000001202C
:101510008DF803008DF8010003208DF80200684665
:10152000FFF7B0FB7FBD000070B559484068401E12
:10153000584951F82000584908600121574800F0E7
:10154000C8F900287ED0524800690C2802DB01202F
:101550004F4908624E48006A70B94D4800690B282F
:101560000AD14B4840693B2806D1494880693B284D
:1015700002D101204649086220214948FFF7F5F8C9
:1015800010BB4348056A05EBD5704010A5EB400041
:10159000012816D120214248FFF7E7F841490968A0
:1015A00088420ED03A4800690C280ADD38480069A4
:1015B0000C383749086120213948FFF7D6F83949F6
:1015C000086000F0BFFD35E03148056A05EBD570D5
:1015D0004010A5EB4000012816D120213048FFF72C
:1015E000C4F83049096888420ED0294800690C289F
:1015F0000ADA274800690C3025490861202128486B
:10160000FFF7B3F82749086000F010FE2048006992
:101610002549096988420DD11D4840692249496917
:10162000884207D11A4880691F498969884201D1D7
:10163000FEF736FE002400F007FF1C4800781C4926
:10164000096800E01FE0884205DA18484078194927
:10165000096888420DDB01241448007814490968A0
:10166000884206DB1148407812490968884200DB4D
:101670000224012C02D10120FFF748FA022C01D1EB
:10168000FEF740FE00BF0121044800F013F970BDD1
:10169000240000204C0000204800002000040040EE
:1016A000000C0240B000002058010020C4000020BF
:1016B000C8000020CC0000207FB505460C46012163
:1016C0000220FFF719FD681E0190601E80B2ADF880
:1016D00000000020ADF80200ADF8080069460E4891
:1016E00000F066FA012211460B4800F003F91D20B4
:1016F0008DF80C0001208DF80D0003208DF80E00F0
:1017000001208DF80F0003A8FFF7BCFA0121024861
:1017100000F0D3F87FBD00000004004030B58BB06E
:1017200005460C4601210420FFF7E6FC01210820B4
:10173000FFF7D2FC4FF4A040099002208DF828005A
:1017400000208DF82A0001208DF82B0002208DF852
:10175000290009A91F48FEF79DFF02220C211D4800
:10176000FEF7E0FF02220E211A48FEF7DBFF002001
:10177000ADF81A00681E0790601E80B2ADF8180020
:101780000020ADF8200006A9134800F011FA6020EF
:10179000ADF804000120ADF806000020ADF81000FF
:1017A00001A90D4800F0B0F801A90B4800F054F968
:1017B0000821094800F0E6F80821074800F09CF9E4
:1017C0000121054800F06AF80121034800F075F88E
:1017D0000BB030BD000C02400008004030B58BB0AB
:1017E00005460C4601210420FFF786FC0121082054
:1017F000FFF772FC4FF42040099002208DF828007A
:1018000000208DF82A0001208DF82B0002208DF891
:10181000290009A91F48FEF73DFF02220D211D489E
:10182000FEF780FF02220F211A48FEF77BFF0020FF
:10183000ADF81A00681E0790601E80B2ADF818005F
:101840000020ADF8200006A9134800F0B1F960208F
:10185000ADF804000120ADF806000020ADF810003E
:1018600001A90D4800F098F801A90B4800F04EF9C5
:101870000821094800F0E2F80821074800F082F941
:101880000121054800F00AF80121034800F015F88D
:101890000BB030BD000C02400008004021B10288AE
:1018A00042F08002028004E002884FF67F731A4003
:1018B00002807047CA430282704721B1028842F019
:1018C0000102028004E002884FF6FE731A40028093
:1018D000704730B50246002000230024158A05EA2F
:1018E0000103958905EA010413B10CB1012000E060
:1018F000002030BD1AB183890B43838102E08389C4
:101900008B4383817047000070B5002400220023C0
:10191000058C4FF6FE7635400584028C8388048B57
:101920004FF68F752C40B51E2C400D882C43751E2C
:101930002A408D892A434D882A43104DA84202D05F
:101940000F4DA84213D14FF6F7752A40CD892A438F
:101950004FF6FB752A408D882A434FF6FF652B40D2
:101960004FF6FF552B400D8A2B434D8A2B43838026
:1019700004838D684563028470BD0000000001404F
:10198000000401400A460021018B4FF6F77319400D
:10199000114301837047000070B50024002200232A
:1019A000058C4FF6EF7635400584028C8388048BD6
:1019B00048F6FF752C404FF6FF452C400D884FF63A
:1019C000FF7606EA05252C434FF6DF752A408D8900
:1019D00006EA05152A434D8806EA05152A43154DE2
:1019E000A84202D0144DA8421DD14FF67F752A405F
:1019F000CD894FF6FF7606EA05152A434FF6BF75E7
:101A00002A408D8806EA05152A434FF6FF352B40FC
:101A10004FF2FF752B400D8A06EA85052B434D8A50
:101A200006EA85052B43838004838D6885630284E1
:101A300070BD000000000140000401400A46002182
:101A4000018B4FF2FF7319404FF6FF7303EA022335
:101A5000194301837047000070B500240022002361
:101A6000058C4FF6FF6635400584028C8388848B95
:101A70004FF68F752C404FF6FC752C400D882C438B
:101A80004FF6FF552A408D894FF6FF7606EA052569
:101A90002A434D8806EA05252A43154DA84202D05F
:101AA000144DA8421DD14FF2FF752A40CD894FF643
:101AB000FF7606EA05252A434FF6FF352A408D8832
:101AC00006EA05252A434EF6FF752B404DF6FF75B5
:101AD0002B400D8A06EA05152B434D8A06EA0515AB
:101AE0002B43838084838D68C563028470BD0000AE
:101AF00000000140000401400A460021818B4FF69E
:101B0000F7731940114381837047000070B50022BC
:101B100000230024058C4EF6FF7635400584038CA7
:101B20008488828B48F6FF752A404FF6FF452A408D
:101B30000D884FF6FF7606EA05252A434DF6FF7518
:101B40002B408D8906EA05352B434D8806EA05357D
:101B50002B430A4DA84202D0094DA84208D14BF6AA
:101B6000FF752C400D8A4FF6FF7606EA85152C434B
:101B7000848082838D680564038470BD0000014009
:101B8000000401400A460021818B4FF2FF73194087
:101B90004FF6FF7303EA02231943818370474163C1
:101BA000704781637047C1637047016470470000EC
:101BB00000220288184B98420ED0184B98420BD046
:101BC000B0F1804F08D0164B984205D0154B984283
:101BD00002D0154B984204D14FF68F731A404B88B0
:101BE0001A43124B984207D0114B984204D04FF63B
:101BF000FF431A400B891A4302804B68C3620B886B
:101C00000385054B984202D0044B984201D18B7A50
:101C100003860123838270470000014000040140D5
:101C20000004004000080040000C0040001000408C
:101C30000014004010B524A203210120FFF774F91D
:101C400025A200210320FFF76FF92548027802231F
:101C500004210320FFF71AF922A200210420FFF734
:101C600063F91F484278022304210846FFF70EF962
:101C70001EA200210520FFF757F91FA20021062010
:101C8000FFF752F902231E48042102680620FFF7DD
:101C9000FDF814A209210620FFF746F9022319488E
:101CA0000E2102680620FFF7F1F8174880681749EF
:101CB000096891FBF0F200FB1214012322460F2168
:101CC0000720FFF7E3F810BD54454D2648554D4910
:101CD0002D4465627567000054656D703A00000020
:101CE000C400002048756D693A00000054687265B0
:101CF00073686F6C643A000054656D3A0000000030
:101D0000C8000020CC000020B4000020C00000204B
:101D10000020034908704870887008714871704746
:101D2000D000002010B540F22551644800F020F9A1
:101D3000002875D0614800F0D5F9C4B2362C67D0C0
:101D400008DCA4F1310005281ED2DFE800F00C1EEB
:101D500023345900682C48D06C2C30D06D2C39D0ED
:101D60006F2C77D15DE056A000F0C4F95DA000F0C3
:101D7000C1F9012065490880654800F0BBF90220DF
:101D8000FEF7C4FEFFF7C4FF64E0FEF789FAFFF731
:101D9000BFFF5FE040F214515E48FFF702FF4FF4CF
:101DA000FA6000F0C9FA4FF496715A48FFF7F9FE4D
:101DB000FFF7AEFF4EE058A000F09CF94AE04FF468
:101DC000FA615448FFF7EBFE4FF4FA615148FFF710
:101DD000EAFE3FE041F270714E48FFF7E0FE41F24B
:101DE00070714C48FFF7DFFE34E042F21071494851
:101DF000FFF7D5FE42F210714648FFF7D4FE29E006
:101E000040F214514348FFF7D0FEFFF781FF21E075
:101E10004FF496713F48FFF7C8FEFFF779FF19E0CE
:101E20004AE048A000F066F90020384908804FF4E5
:101E300096713848FFF7B9FE00213648FFF7AFFE2C
:101E400000213448FFF7AFFEFFF762FF0120FEF7E5
:101E50005DFE00BF00BF3E48008800F4004058BB54
:101E60003B48008800F4804060B10A2C03D0002079
:101E70003749088020E03648008840F40040344963
:101E8000088019E00D2C06D13148008840F48040CC
:101E90002F49088010E02E480088C0F30D002D491E
:101EA0000C542B480088401C2949088008460088AB
:101EB000632801DD0020088010BD000000100140F3
:101EC00057656C636F6D6520746F20736D617274FC
:101ED00020686F6D652073797374656D21210D0A1B
:101EE00000000000506C656173652073656E6420AE
:101EF0006F7264657220746F2063686F6F73652002
:101F0000746865206D6F64653A0D0A000A00002050
:101F10008028000800080040506C656173652073DC
:101F2000656E64206C2C6D206F72206820746F20A9
:101F300063686F6F7365204272696768746E65735A
:101F400073210000476F6F64427965210000000033
:101F500008000020D000002021B1828942F4005204
:101F6000828104E082894DF6FF731A4082817047B6
:101F700070B50246002400230025002040F66A16B2
:101F8000B14200D100BFC1F3421501F01F03012689
:101F900006FA03F3012D02D19689334006E0022DA3
:101FA00002D1168A334001E0968A33400C12012692
:101FB00006FA04F41688344013B10CB1012000E095
:101FC000002070BDF0B50346002400260025002047
:101FD00040F66A17B94200D100BF1846C1F3421457
:101FE00001F01F06012707FA06F5012C01D10C307C
:101FF00004E0022C01D1103000E014301AB107685F
:102000002F43076002E00768AF430760F0BD0000A0
:102010002DE9FF4705460E460024A14600BFA04615
:10202000B08900B100BF2C8A24F44054F0880443E6
:102030002C82AC8941F20C608443B088318908431A
:10204000718908430443AC81AC8A24F44074B0899C
:102050000443AC826846FFF76FF82048854202D0FF
:102060001F48854202D1DDF80C9001E0DDF80890B0
:10207000A88900F4004040B109EBC90000EB091049
:1020800031684900B0FBF1F707E009EBC90000EB4C
:10209000091031688900B0FBF1F76420B7FBF0F05C
:1020A00004012009642101FB1078A88900F4004094
:1020B00040B1322000EBC800B0FBF1F000F00700A7
:1020C000044308E0322000EB08106421B0FBF1F07B
:1020D00000F00F0004432C81BDE8FF870010014091
:1020E0000014014001468888C0F30800704700BF13
:1020F000FEE70000014A024900F013B82D24000851
:102100000400002002E008C8121F08C1002AFAD10A
:1021100070477047002001E001C1121F002AFBD167
:1021200070472DE9F04116460F460446002503E0AE
:102130003946B047641C6D1C20780028F8D1284629
:10214000BDE8F08110B535488069401C334988618D
:10215000084680693B2860DD08464069401C4861AC
:1021600000208861084640693B2856DD0846006922
:10217000401C086100204861FEF7C4F82748006948
:102180000B284ADD002025490861086A00EBD07160
:102190004910A0EB4101012906D120488068401C6C
:1021A0001E498860002008621C490868C11700EBBE
:1021B00091718910A0EB810181B9184909686422E5
:1021C00091FBF2F302FB131141B114484068401E29
:1021D000134951F820001349086007E00F48406890
:1021E000401E114951F820000E4908600B488068D4
:1021F0000C490968884210DD08484068401C0749BE
:10220000486001208860084640680C2805DD0846C3
:102210000068401C08600120486010BD24000020B8
:102220007C000020480000204C00002010B52F4802
:102230008069401C2D498861084680693B2854DD2F
:1022400008464069401C4861002088610846406992
:102250003B284ADD08460069401C086100204861AF
:10226000FEF750F82148006917283EDD1F488068B6
:10227000401C1E498860002008610868C11700EBF7
:1022800091718910A0EB810181B918490968642214
:1022900091FBF2F302FB131141B114484068401E58
:1022A000134951F820001349086007E00F484068BF
:1022B000401E114951F820000E4908600B48806803
:1022C0000C490968884210DD08484068401C0749ED
:1022D000486001208860084640680C2805DD0846F3
:1022E0000068401C08600120486010BD24000020E8
:1022F0007C000020480000204C00002010B504465F
:102300006FF00400FFF780F8E11704EB5171C1F39F
:10231000C701074A11701046007800EB4001C1EB7D
:10232000C0104FF6FF7101EAC0000249088010BDDD
:10233000000000200200002070B504464FF4077032
:1023400094FBF0F0C6B24FF4077094FBF0F100FB81
:10235000114085B205E04FF4077000F02FF8701EB1
:10236000C6B2002EF7D115B1284600F027F870BD8F
:102370000146114A12784A434FF0E0235A61002285
:102380009A611A46126942F001021A6100BF4FF0C9
:10239000E022106900F001021AB100F48032002A34
:1023A000F5D04FF0E022126922F001024FF0E02355
:1023B0001A6100229A617047000000200146114A0C
:1023C00012884A434FF0E0235A6100229A611A466C
:1023D000126942F001021A6100BF4FF0E022106959
:1023E00000F001021AB100F48032002AF5D04FF05B
:1023F000E022126922F001024FF0E0231A6100226C
:102400009A617047020000200146002209B90120AC
:102410007047002900DA494203E00A2091FBF0F1FD
:10242000521C0029F9DC1046F2E7000000BF054A03
:10243000128802F04002002AF9D0C2B2014B9A8001
:10244000704700000010014010B50249481EFEF719
:10245000C2F810BDC5000020FDF76EFF4FF4967165
:102460000848FFF79EFB4FF496710648FFF79DFB67
:1024700007E00548008810B1FEF786F901E0FEF795
:1024800047FCF6E7000800400A00002010B50246AD
:10249000012000E050430B1EA1F10101FAD110BD53
:1024A0001CB501210820FEF717FE00208DF804005E
:1024B00001208DF8070002208DF805003F200090D4
:1024C00069460248FEF7E6F81CBD0000000C024019
:1024D00010B51FA205210120FEF726FD1EA2002136
:1024E0000320FEF721FD1E48022305210269032077
:1024F000FEF7CCFC1A480223194642690520FEF774
:10250000C5FC16A205210846FEF70EFD144802235D
:10251000062182690520FEF7B9FC10A209210520D9
:10252000FEF702FD0E4802230A21C2690520FEF7CC
:10253000ADFC0C4880680C49096891FBF0F200FB87
:102540001214012322460F210720FEF79FFC10BD25
:1025500054494D4552212100486F75723A000000E0
:1025600034010020B4000020C000002010B588B065
:10257000044601210846FEF7AFFD01211020FEF7B9
:10258000CBFD072209212248FEF7CCF807220A21B9
:102590001F48FEF7C7F84FF4C060069002208DF880
:1025A0001C008DF81D0000208DF81E0001208DF804
:1025B0001F0006A91648FEF76DF802940020ADF83A
:1025C0000C00ADF80E00ADF81000ADF814000C20B2
:1025D000ADF8120002A90F48FFF71AFD01210D48BE
:1025E000FFF7BAFC012240F225510A48FFF7EAFC46
:1025F00025208DF8040003208DF805008DF80600D5
:1026000001208DF8070001A8FEF73CFB08B010BDC3
:102610000000024000100140000000000000000027
:10262000002F000000000700070000147F147F1433
:1026300000242A7F2A1200626408132300364955B9
:10264000225000000503000000001C224100000091
:1026500041221C000014083E08140008083E080827
:10266000000000A060000008080808080000606082
:102670000000002010080402003E5149453E0000C1
:10268000427F4000004261514946002141454B31A3
:10269000001814127F10002745454539003C4A496F
:1026A00049300001710905030036494949360006E1
:1026B0004949291E00003636000000005636000049
:1026C00000081422410000141414141400004122C4
:1026D000140800020151090600324959513E007C9C
:1026E0001211127C007F49494936003E4141412286
:1026F000007F4141221C007F49494941007F09096F
:102700000901003E4149497A007F0808087F00001E
:10271000417F4100002040413F01007F08142241D9
:10272000007F40404040007F020C027F007F040891
:10273000107F003E4141413E007F09090906003EED
:102740004151215E007F0919294600464949493116
:102750000001017F0101003F4040403F001F204039
:10276000201F003F4038403F0063140814630007F7
:102770000870080700615149454300007F4141004E
:10278000000204081020000041417F000004020103
:1027900002040040404040400000010204000020CC
:1027A00054545478007F484444380038444444200A
:1027B00000384444487F00385454541800087E09B7
:1027C00001020018A4A4A47C007F0804047800007F
:1027D000447D4000004080847D00007F102844003C
:1027E0000000417F4000007C04180478007C08044D
:1027F000047800384444443800FC24242418001889
:10280000242418FC007C0804040800485454542074
:1028100000043F444020003C4040207C001C2040FD
:10282000201C003C4030403C004428102844001C40
:10283000A0A0A07C004464544C4414141414141438
:10284000E8B59BE58D9A000C045454FC545654FC96
:102850005454040C0009495D472525152525475D7D
:102860000909002020FE2020F45454FE5456F4049C
:102870000000007F00080B19290B497D0B080000A0
:10288000322D2D446F6F7242656C6C0D0A332D2D05
:102890004F70656E20446F6F720D0A342D2D4C6998
:1028A000676874696E670D0A352D2D447261772053
:1028B000746865204375727461696E0D0A362D2D3A
:1028C000436C6F736520746872204375727461691C
:1028D0006E0D0A6F2D2D436C6F736520416C6C0D6E
:1028E0000A0000000429000800000020D0000000B9
:1028F00004210008D4290008D0000020B004000002
:10290000142100080000000000000000000000008A
:102910000000000001020304010203040607080985
:102920000000000000000000E50700000B000000B0
:1029300011000000030000000A0000000000000079
:102940000000000000000000000000000000000087
:102950001F0000001C0000001F0000001E000000FF
:102960001F0000001E0000001F0000001F000000EC
:102970001E0000001F0000001E0000001F000000DD
:102980001F0000001D0000001F0000001E000000CE
:102990001F0000001E0000001F0000001F000000BC
:1029A0001E0000001F0000001E0000001F000000AD
:1029B0000000000001000000000000000400000012
:1029C0000500000000000000000000001A000000E8
:0429D00041000000C2
:040000050800018965
:00000001FF
